S00D00004C616261382E737265636F
S11300000C9457000C9474000C9474000C947400B9
S11300100C9474000C9474000C9474000C9474008C
S11300200C9474000C9474000C9474000C9474007C
S11300300C9474000C94F8070C941F080C9474002E
S11300400C9474000C9474000C9474000C9474005C
S11300500C947400E103E803F203F80300040804B9
S11300602C0445045F04670474043A073A073A070A
S11300703A073A073A073A073A073A073A073A0774
S11300803A079C04D704F2043A073A073A073A07B6
S11300903A073A073A073A073A073A073A073A0754
S11300A03A074305BC0528063906A5062907112485
S11300B01FBECFE5D8E0DEBFCDBF10E0A0E6B0E0C4
S11300C0E6E0F2E102C005900D92AC36B107D9F733
S11300D022E0ACE6B0E001C01D92A039B207E1F71E
S11300E00E94EE020C9401090C9400004F925F925E
S11300F06F927F928F929F92AF92BF92CF92DF9234
S1130100EF92FF92CF93DF93EB014A01BA010E9471
S113011066086C01E12CF12C209729F1412C512C1B
S113012032014394A12CB12CC0FF0CC0A301920155
S1130130C701B6010E945608A50194010E947A08DD
S11301402B013C01A7019601C701B6010E94560884
S1130150A50194010E947A086B017C01D695C7958C
S1130160209711F704C0412C512C32014394C20151
S1130170DF91CF91FF90EF90DF90CF90BF90AF9041
S11301809F908F907F906F905F904F900895382F3D
S1130190CB01FA01BA010E946608AC01832F90E0FA
S11301A0A0E0B0E0BC01CD01640F751F811D911D5D
S11301B09F0140E050E00E947A08CB010895CF935C
S11301C0DF93FA01EC01C40FD51FCB01BA010E94E1
S11301D06608AE01481B590BCA01BF010E9466089C
S11301E08F3F910509F020F4F901808381E001C07B
S11301F080E0DF91CF9108950F931F93CF93DF9306
S1130200CDB7DEB7C254D1090FB6F894DEBF0FBE26
S1130210CDBF80E090E00E94D4088C0182E090E0A1
S11302200E94D408033A134E11F4019719F1FE0108
S1130230319682E4DF011D928A95E9F783EA93EE11
S11302409A83898381E090E09C838B8380E190E0B2
S11302509E838D83CE01C996108A3796E817F907D5
S1130260D9F742E450E060E070E0CE0101960E94CC
S1130270DA0813C084E090E00E94D408009739F0B3
S1130280BC018134910528F060E470E002C061E0B3
S113029070E084E090E00E94FB08CE5BDF4F0FB675
S11302A0F894DEBF0FBECDBFDF91CF911F910F91A8
S11302B0089584E090E00E94D408009731F08134DE
S11302C0910528F080E490E0089581E090E008959D
S11302D0009739F0BC018134910528F060E470E0A6
S11302E002C061E070E084E090E00E94FB080895A1
S11302F05F926F927F928F929F92AF92BF92CF92B2
S1130300DF92EF92FF920F931F93CF93DF93CDB7BA
S1130310DEB727970FB6F894DEBF0FBECDBF6C01D2
S11303205B014A010F2EFAE0EF2EF0E0FF2EF02DD4
S11303308701712C47E050E0B801CE0101960E947C
S1130340BC088F8180FF16C089819A818C159D0518
S113035089F48B819C818A159B0561F49E828D8230
S113036047E050E0602F712FCE0101960E94DA0819
S1130370872D2AC07394095F1F4F88E07812DACF63
S113038010E047E050E0B701CE0101960E94BC089E
S11303908F8180FD12C0DA82C982BC82AB829E82C8
S11303A08D8281E08F8347E050E06E2D7F2DCE015A
S11303B001960E94DA08812F07C01F5F87E0E80ECC
S11303C0F11C1830F1F68FEF27960FB6F894DEBFC4
S11303D00FBECDBFDF91CF911F910F91FF90EF9092
S11303E0DF90CF90BF90AF909F908F907F906F9051
S11303F05F900895CF93DF93CDB7DEB727970FB6FD
S1130400F894DEBF0FBECDBF8830A0F4682FCE01B4
S1130410019627E0FC0111922A95E9F7F7E06F9F16
S1130420B0011124665F7F4F47E050E00E94DA0874
S113043081E001C080E027960FB6F894DEBF0FBEBE
S1130440CDBFDF91CF9108958F929F92AF92BF92CB
S1130450CF92DF92EF92FF921F93CF93DF93CDB7AA
S1130460DEB727970FB6F894DEBF0FBECDBF6C0181
S11304705B014A010F2EFAE0EF2EF0E0FF2EF02D83
S113048010E047E050E0B701CE0101960E94BC089D
S11304908F8180FF17C089819A818C159D0591F405
S11304A08B819C818A159B0569F48114910441F028
S11304B087E0FE013196D40101900D928A95E1F70F
S11304C0812F07C01F5F87E0E80EF11C1830C9F6C2
S11304D08FEF27960FB6F894DEBF0FBECDBFDF9126
S11304E0CF911F91FF90EF90DF90CF90BF90AF908E
S11304F09F908F9008959F92AF92BF92CF92DF9278
S1130500EF92FF920F931F93CF93DF93CDB7DEB794
S113051027970FB6F894DEBF0FBECDBF6623A9F1AF
S11305206A01962E5C010F2EFAE0EF2EF0E0FF2E0A
S1130530F02D00E010E047E050E0B701CE01019655
S11305400E94BC088F8180FF17C0802F90E027E0B5
S1130550FE013196D50137E0039FA00DB11D112492
S113056001900D922A95E1F7C114D10421F0F6010E
S1130570E80FF91F10830F5F1F5F183039F087E011
S1130580E80EF11C0915B8F201C000E0802F27968F
S11305900FB6F894DEBF0FBECDBFDF91CF911F9190
S11305A00F91FF90EF90DF90CF90BF90AF909F900E
S11305B00895CF9386E090E00E94CC08E82FE7707E
S11305C0F0E0E05AFF4FC0818F5F682F677086E0CC
S11305D090E00E94EA088C2FCF9108950E94FC00BD
S11305E00E94AD070E949E0385B78F7885BF7894DB
S11305F00E94A30385B7806885BF889585B78F77E8
S113060085BFF6CF862798E027E088231CF4880F5F
S1130610822701C0880F9150C1F70895EF92FF928D
S11306200F931F93CF93DF93C62F8A017901682F0D
S113063080E00E9402036C2F0E940203602F0E943C
S11306400203612F0E9402030115110549F0E7011D
S11306500E0D1F1D69910E940203C017D107D1F727
S1130660DF91CF911F910F91FF90EF900895EBEFE1
S1130670F0E0108211821282148213821682158293
S113068008958DE0EEEEF0E0DF011D928A95E9F722
S11306900895DF92EF92FF920F931F93CF93DF930E
S11306A000D000D000D0CDB7DEB77A01890195E53E
S11306B099839AEA9A838B836C832D831E839A0190
S11306C0A8010E940E03D82E66E070E0CE010196C8
S11306D00E94E2070115110521F0B801C7010E942B
S11306E0E2078D2D0E94D00726960FB6F894DEBF40
S11306F00FBECDBFDF91CF911F910F91FF90EF906F
S1130700DF9008959A01AB0160E080680E9449037C
S11307100895CF93DF9300D0CDB7DEB789836A8382
S113072022E030E0AE014F5F5F4F60E08FE70E9450
S113073049030F900F90DF91CF9108950E943703E2
S11307400E94410308952F923F924F925F926F92BD
S11307507F928F929F92AF92BF92CF92DF92EF924D
S1130760FF920F931F93CF93DF93CDB7DEB7C3549C
S1130770D1090FB6F894DEBF0FBECDBF0BEF10E06A
S11307800F2EFEEECF2EF0E0DF2EF02D0F2EFCE626
S11307908F2EF0E09F2EF02D6894772471F8A12C11
S11307A0BB24B394612C74C3D801EC918E2F90E0D8
S11307B08830910508F06AC3FC01E65DFF4F0C9494
S11307C09C088981853509F063C3F801B08260C350
S11307D089818A3A21F482E0D8018C9359C30E941A
S11307E0370356C38981F801818383E0808350C332
S11307F08981D80112968C93129784E08C9348C314
S1130800898190E0F8019483838385E0808340C3E9
S11308102981D80113968D919C911497922B14964B
S11308209C938E93139716961C921E921597833859
S1130830910540F064E011968C910E9489030E9416
S1130840370326C3892B21F487E0F801808320C372
S113085086E0D8018C931CC3F801858196819C01A4
S11308602F5F3F4F36832583FC01E550FF4F4981BD
S11308704783D80113968D919C91149728173907B3
S113088008F406C387E08C9303C3F801E380F48083
S1130890518022E031E0A7016281852D0E940E0380
S11308A099818913ECC2852D90E0FC013197E532E2
S11308B0F10508F0DFC2EE5CFF4F0C949C0844E0A5
S11308C050E068E670E08B2D0E948203DCC20E9437
S11308D05901D4018C9311969C93472D5A2DB40140
S11308E082E00E948203CFC2B2E0EB16F10429F049
S11308F064E083E00E948903C6C2F801E084F12C1D
S1130900FE2CEE248781E82AC701019780349105E3
S113091028F065E083E00E948903B5C2C7010E9404
S11309206801D401EC921196FC92472D5A2DB40122
S113093083E00E948203A7C2B6E0EB16F10429F01B
S113094064E080E10E9489039EC2F801808590E002
S1130950982F88272781822B628570E0762F66275F
S11309602185622B009761F06115710549F044857A
S113097050E0542F44272385422B4115510529F477
S113098065E080E10E9489037EC20E947801882389
S11309902CF467E080E10E94890375C2D4018C9332
S11309A041E0562DB40180E10E9482036CC2EA94B6
S11309B0EF2829F064E081E10E94890364C2F80110
S11309C087810E94FA01811105C065E081E10E94DE
S11309D0890359C240E050E060E070E081E10E9488
S11309E0820351C2AE01465C5F4F68E0CE010296BD
S11309F00E947B02D4018C938823F1F19E01265C32
S1130A003F4FECE6F0E07E01B2E0EB0EF11C8150CA
S1130A10482F50E0CA010196820F931FD9016D91AE
S1130A209D016183D70116966C91169762837C9120
S1130A3011966C9111977383648312967C9112972B
S1130A4013966C9113977583668314967C9114970F
S1130A5015966C91778360873896B7E0EB0EF11C9E
S1130A6028173907D9F6440F551F440F551F440F53
S1130A70551F475F5F4F02C041E0562DB40182E12C
S1130A800E94820300C2E4E0EE16F10429F064E05F
S1130A9080E20E948903F7C10E944103D80118969D
S1130AA08C91189790E0982F882717962C91179778
S1130AB0822BF601928381831A968C911A9790E087
S1130AC0982F882719962C91822B948383830E94D4
S1130AD05901D6011C969C938E931B9713966D9186
S1130AE07C911497AE014E5F5F4F11968D919C914E
S1130AF012970E94240288232CF466E080E20E946C
S1130B008903C1C18E819F81F601968385830E94EA
S1130B10D902D60113964D915C911497682F70E019
S1130B2011968D919C9112970E947600F601908700
S1130B30878343815481658176810E947600D60142
S1130B401A969C938E931997BC9217969C9117971B
S1130B5018968C911897F401908381831B969C912D
S1130B601B971C968C919283838344E050E0B401DC
S1130B7080E20E94820387C1D6018C918370813008
S1130B8029F068E081E20E9489037DC1B2E0EB169E
S1130B90F10428F464E081E20E94890374C1F8013D
S1130BA02084312C322C22248781282AD6011B96BA
S1130BB08D919C911C978215930548F0B1E42B16F6
S1130BC0310428F4C1010296E816F90629F064E01C
S1130BD081E20E94890357C1F401208231822114E9
S1130BE0310479F184E091E024969FAF8EAF24978D
S1130BF00F2EFCE64F2EF0E05F2EF02D220C331C5E
S1130C00D101A459BF4F7D01F6014381548161850F
S1130C1072852496AEADBFAD24978D912496BFAF57
S1130C20AEAF24970E94C700F20182839383F2E05F
S1130C304F0E511C4E145F0439F7A1014E5F5F4FF4
S1130C4002C0472D5A2DB40181E20E9482031BC1C8
S1130C50EF2829F064E082E20E94890314C10E9413
S1130C60410340E050E060E070E082E20E948203D1
S1130C700AC166E0E616F10429F064E083E20E940A
S1130C80890301C10E944103D80118968C911897D9
S1130C9090E0982F882717962C911797822BF601AE
S1130CA0928381831A968C911A9790E0982F8827C3
S1130CB019962C911997822B948383831C968C917B
S1130CC01C9790E0982F88271B962C91822B908755
S1130CD087830E945901D6011C969C938E931B977F
S1130CE013966D917C911497AE014E5F5F4F1196F0
S1130CF08D919C9112970E94240288232CF466E023
S1130D0083E20E948903BFC06E817F81F6017683EE
S1130D10658343815481878190850E947600D60142
S1130D201A969C938E93199783E08C931B969C91AF
S1130D301B971C968C91F40190838183472D5A2D27
S1130D40B40183E20E9482039EC0D6018C91837019
S1130D50833029F068E084E20E94890394C0B2E001
S1130D60EB16F10428F464E084E20E9489038BC04A
S1130D70F8012084312C322C22248781282AD601A0
S1130D801B968D919C911C978215930558F0B1E4A4
S1130D902B16310438F4C1010196880F991FE81607
S1130DA0F90629F064E084E20E9489036CC0F4012E
S1130DB0208231822114310409F443C00F2EF4E05F
S1130DC0EF2EF1E0FF2EF02D8EE690E024969FAFFB
S1130DD08EAF249792E0290E311C6894442441F884
S1130DE0512CD60113964D915C91149719966D91DF
S1130DF07C911A97F701818190E0982F8827E081F0
S1130E009E012E5F3F4F8E2B0E94DF00811105C093
S1130E1069E084E20E94890336C0FFEF4F1A5F0A3B
S1130E208A812496AEADBFAD24978D932496BFAF2F
S1130E30AEAF2497B2E0EB0EF11C4214530489F6D2
S1130E4002C0272C3A2CA101B40184E20E9482033F
S1130E501AC0EF2829F064E085E20E94890313C0D8
S1130E600E94410340E050E060E070E085E20E94AF
S1130E70820309C063E0852D0E94890304C062E0F7
S1130E80852D0E9489030E94370302C00E94370304
S1130E90CE0101960E94C507811186CCCD5BDF4F40
S1130EA00FB6F894DEBF0FBECDBFDF91CF911F9177
S1130EB00F91FF90EF90DF90CF90BF90AF909F90F5
S1130EC08F907F906F905F904F903F902F900895F8
S1130ED0FC01108211824150428374836383158222
S1130EE00895FC0180819581911118C08F5F9281D2
S1130EF089232181482F50E04F5F5F4F30E091E01C
S1130F004217530709F090E095839081A381B4813F
S1130F10A90FB11D6C93808381E0089580E008954A
S1130F20FC0190818181981781F015828181A381D0
S1130F30B481A80FB11D8C91DB018C9381818F5FEB
S1130F4092818923818381E0089580E008950E943D
S1130F50710708950E949007089540E864E072E0E4
S1130F608AE892E00E94680740E864E871E084E857
S1130F7092E00E94680782E08BB910BC89E189B9CC
S1130F8088E98AB986E880BD0895CF93CFB7F894ED
S1130F90BC018AE892E00E949007CFBFCF910895E8
S1130FA0CF93DF93D82FCFB7F8946D2F84E892E0D6
S1130FB00E9471078111559ACFBF8823A1F3DF9155
S1130FC0CF9108950F931F93CF93DF93611571050C
S1130FD051F08C01EC01060F171F89910E94D00774
S1130FE0C017D107D1F7DF91CF911F910F910895C9
S1130FF01F920F920FB60F9211242F933F934F938A
S11310005F936F937F938F939F93AF93BF93EF936C
S1131010FF936CB18AE892E00E94A707FF91EF91D9
S1131020BF91AF919F918F917F916F915F914F91FC
S11310303F912F910F900FBE0F901F9018951F9204
S11310400F920FB60F9211242F933F934F935F93F8
S11310506F937F938F939F93AF93BF93EF93FF937C
S1131060CF93DF931F92CDB7DEB7BE016F5F7F4F83
S113107084E892E00E94AA07882319F089818CB938
S113108001C055980F90DF91CF91FF91EF91BF91DF
S1131090AF919F918F917F916F915F914F913F910C
S11310A02F910F900FBE0F901F901895DB018F9317
S11310B09F930E94A208BF91AF91A29F800D911DA2
S11310C0A39F900DB29F900D11240895AA1BBB1BE2
S11310D051E107C0AA1FBB1FA617B70710F0A61B34
S11310E0B70B881F991F5A95A9F780959095BC0155
S11310F0CD010895A1E21A2EAA1BBB1BFD010DC050
S1131100AA1FBB1FEE1FFF1FA217B307E407F507B3
S113111020F0A21BB30BE40BF50B661F771F881F8F
S1131120991F1A9469F760957095809590959B0125
S1131130AC01BD01CF010895EE0FFF1F0590F4919E
S1131140E02D09940E94AD08A59F900DB49F900DC9
S1131150A49F800D911D11240895A29FB001B39FF7
S1131160C001A39F700D811D1124911DB29F700DAC
S1131170811D1124911D0895DC01CB01FC01E1992D
S1131180FECF06C0FFBBEEBBE09A31960DB20D92C6
S113119041505040B8F70895E199FECF9FBB8EBBF4
S11311A0E09A99278DB30895A8E1B0E042E050E0B9
S11311B00C94BE08DC01A40FB51F4150504048F008
S11311C0CB01840F951F2E910E94EB084150504093
S11311D0D0F70895262FE199FECF9FBB8EBBE09AEE
S11311E001970DB2021631F02DBB0FB6F894E29AB6
S11311F0E19A0FBE08950196272F0E94EB080C94E4
S1091200EA08F894FFCF98
S10F12060305070B0D1113174547413376
S9030000FC
