:020000020000FC
:020000000EC030
:0200040066C0D4
:020008007AC0BC
:10001C0048C0F894112408E00EBF0FE50DBF0FEF98
:10002C000ABB07BB002704BB03E301BB00270BBBC8
:10003C0008BB05BB02BB00270093600000270093A0
:10004C00610005E50093630081E0D1D0082F0330F7
:10005C0008F00027009362000FE005BF00EC0ABF18
:10006C0000EC0BBFA0D05ED07894879901D0FDCF67
:10007C000F932F9300270BBB08BB7BD0879901C034
:10008C0008C003B3002319F000936300F7CF8799DE
:10009C00FECF9091630082E0B4D044D02F910F91A9
:1000AC0008950F930FB70F931F93879907C0009173
:1000BC00610011E001270093610034D01F910F9172
:1000CC000FBF0F9118950F930FB70F931F931091AC
:1000DC00600001E010271093600024D09091600024
:1000EC0080E08FD08299FECF1F910F910FBF0F919F
:1000FC0018950F930FB70F931F93109162001395E0
:10010C00133008F01127109362004DD032D090912B
:10011C00620081E076D08399FECF1F910F910FBFC3
:10012C000F9118950F931F932F933F93109160008D
:10013C00112351F400916100002319F42FEF3FEFCC
:10014C0010C0222733270DC000916100002321F439
:10015C0020916300322F05C0209163007FEF272789
:10016C00322F2BBB38BB05D03F912F911F910F9194
:10017C0008950F931F93002710916200103029F0FF
:10018C00113011F0026001C0016010916000112368
:10019C0009F0006110916100112309F0006202BBAB
:1001AC001F910F9108950F931F9300270FBD0EBD44
:1001BC000DBD0CBD00916200003061F0013029F0E2
:1001CC001FE01BBD11E41ABD09C01EE11BBD13E8E5
:1001DC001ABD04C01DE31BBD18E01ABD00E108BF29
:1001EC0000E109BF0DE00EBD1F910F9108950F9313
:1001FC00E199FECF00270FBB8EBBE09A8DB30F9118
:10020C0008950F930FB70F93F894E199FECF002741
:10021C000FBB8EBB9DBBE29AE19A0F910FBF0F9162
:02022C00089533
:00000001FF
