:020000020000FC
:020000000EC030
:0200040078C0C2
:0200080092C0A4
:10001C0045C0F894112441E0F1E0042E442748E057
:10002C004EBF4FE54DBF4FEF4ABB47BB40E044BB13
:10003C0043E341BB4CE841BB80E0C4D080936000FB
:10004C0081E0C0D08093620082E0BCD080936300DA
:10005C00009160000F3F19F400270093600000919D
:10006C0062000F3F19F400270093620000916300B7
:10007C000F3F19F405E5009363000027009361001E
:10008C0065D07BD00AE005BF00EC0BBF789400B3C1
:10009C0007FDFDCF13B310936300F9CF0F931F939C
:1000AC002F9300B307FF1CC0009161000F27009332
:1000BC00610020916000222351F4009161001091A5
:1000CC006300002311F01FEF09C010E007C000917E
:1000DC00610010916300002309F010681BBB18BB72
:1000EC0035D02F911F910F9118950F938F939F934C
:1000FC00009160000F2700936000002700936100BF
:10010C0025D09091600080E065D09091620081E0F4
:10011C0061D09091630082E05DD09F918F910F919F
:10012C0018950F938F939F93009162000395033062
:10013C0008F000270093620020D008D09091620054
:10014C0081E048D09F918F910F9118950F931F9339
:10015C0002B310E0012310916000112309F000613B
:10016C0010916100112309F000621091620013706C
:10017C00012B02BB1F910F9108950F931F9300E069
:10018C000EBD08E00EBD00916200003061F00F3032
:10019C0029F003E80ABD0EE10BBD09C008E00ABD59
:1001AC000DE30BBD04C001E10ABD0AE70BBD00273E
:1001BC000DBD0CBD00E109BF0EB505600EBD1F9154
:1001CC000F9108950F93E199FECF8EBBE09A8DB3FA
:1001DC000F9108950F93E199FECF8EBB9DBBE29AD0
:0601EC00E19A0F91089555
:00000001FF
