:020000020000FC
:020000000EC030
:0200040083C0B7
:020008009DC099
:10001C004CC0F894112441E051E0042E442748E0F0
:10002C004EBF4FE54DBF4FEF4ABB47BB40E044BB13
:10003C004FEF45BB43E341BB4CE842BB00E00BBB7D
:10004C000FEF08BB80E0C9D08093600081E0C5D081
:10005C008093620082E0C1D08093630000916000C5
:10006C000F3F19F4002700936000009162000F3FCE
:10007C0019F402E000936200009163000F3F19F441
:10008C0005E5009363000027009361006AD080D0DF
:10009C000AE005BF00EC0BBF789400B307FF01D05A
:1000AC00FCCF13B31093630008950F931F932F93FA
:1000BC003F9300916100052700936100209160003F
:1000CC00222351F400916100002319F01FEF30E05E
:1000DC000FC010E03FEF0CC0009161001091630065
:1000EC001F77312F3068002319F0432F312F142F35
:1000FC001BBB38BB36D03F912F911F910F91189598
:10010C000F938F939F9300916000052700936000DD
:10011C0000270093610025D09091600080E065D0AD
:10012C009091620081E061D09091630082E05DD09B
:10013C009F918F910F9118950F938F939F9300918F
:10014C0062000395033008F000270093620020D072
:10015C0008D09091620081E048D09F918F910F91CF
:10016C0018950F931F9302B31CEC012310916000A0
:10017C00112309F0006110916100112309F0006254
:10018C00109162001370012B02BB1F910F91089507
:10019C000F931F9300E00EBD08E00EBD00916200AE
:1001AC00003061F0013029F001E40ABD0FE00BBD15
:1001BC0009C003E80ABD0EE10BBD04C008E00ABD8E
:1001CC000DE30BBD00270DBD0CBD00E109BF0EB545
:1001DC0005600EBD1F910F9108950F93E199FECF0D
:1001EC008EBBE09A8DB30F9108950F93E199FECFDA
:0C01FC008EBB9DBBE29AE19A0F91089522
:00000001FF
