S00D00004C616261332E7372656374
S11300000C942A000C941E020C9478020C94470061
S11300100C9447000C9447000C9447000C94470040
S11300200C9447000C9447000C94D2020C944700A3
S11300300C9447000C9447000C9447000C94470020
S11300400C9447000C9447000C9447000C94470010
S11300500C94470011241FBECFE5D8E0DEBFCDBF0E
S113006010E0A0E6B0E0EAE1F9E002C005900D92EC
S1130070A638B107D9F720E0A6E8B0E001C01D9288
S1130080A13BB207E1F70E9498030C948B040C94F3
S11300900000CF93DF939FB7F894A09196005091FE
S11300A09500E091940080919300209192004091FA
S11300B0910030917A009FBF813009F0A7C08091F0
S11300C09100882309F44BC080919100823009F497
S11300D0CCC080919200882309F45EC0C6C031115F
S11300E00FC0442309F495C0413051F4EFEF8FEF72
S11300F007C0413009F48DC0423011F4EFEF8FEFA7
S1130100CA3008F089C0D0E0C558DF4F3881AA3022
S113011010F007C030E0B0E0A558BF4F2C91206824
S113012001C020E08A3008F07DC0A82FB0E0A558B7
S1130130BF4F4C91EA3010F007C040E0F0E0E558C2
S1130140FF4F9081906801C090E08FB7F894E7E981
S1130150F0E030832183428393838FBFA6C08DEC6C
S1130160A89FC12D1124C695C695C6952C2F220F84
S1130170922F990F990F920FA91B589F812D11242B
S1130180869586958695282F220F922F990F990F81
S1130190920FE52FE91BA3CF8DECA89FC12D11244D
S11301A0C695C695C6952C2F220F922F990F990F9D
S11301B0920FA91B589F812D1124869586958695AB
S11301C0282F220F922F990F990F920FE52FE91BD9
S11301D086CF8DECA89FC12D1124C695C695C695D2
S11301E02C2F220F922F990F990F920FA91B589F12
S11301F0812D1124869586958695282F220F922F7E
S1130200990F990F920FE52FE91B7ACF211110C096
S1130210E0CF30E020E086CFAA3008F47BCF30E096
S113022020E080CFEA3008F488CF40E090E08DCF22
S11302308DEC589FC12D1124C695C695C6952C2FBB
S1130240220F922F990F990F920FA52FA91BE89FA8
S1130250812D1124869586958695282F220F922F1D
S1130260990F990F920FE91B4BCF8DEC589FC12D1D
S11302701124C695C695C6952C2F220F922F990F3F
S1130280990F920FA52FA91BE89F812D1124869504
S113029086958695282F220F922F990F990F920FEA
S11302A0E91B332309F425CF2BCFDF91CF91089598
S11302B0EF92FF920F931F93FC018081682381E0EA
S11302C009F080E09281981719F0828313822EC07E
S11302D08381843158F583818F5F83838381843163
S11302E029F58181981711F191839923F9F02483D9
S11302F0358346835783DA01C9018053984FAF4F42
S1130300BF4F80879187A287B38764858091A000BF
S11303108F5F8F7090919F00891741F0A091A0008A
S1130320B0E0AF55BF4F6C938093A00081818823C8
S113033009F47FC084819581A681B78179018A01FE
S1130340E81AF90A0A0B1B0BD801C701803A0FE01F
S11303509007A105B105A8F180859185A285B38593
S113036079018A01E81AF90A0A0B1B0B0AF461C025
S113037064858091A0008F5F8F7090919F00891792
S113038041F0A091A000B0E0AF55BF4F6C938093B3
S1130390A00080859185A285B3858C599F4FAF4F6E
S11303A0BF4F80879187A287B38780859185A28577
S11303B0B38579018A01E81AF90A0A0B1B0BC2F604
S11303C038C0803D9740A105B10598F1808591859D
S11303D0A285B38579018A01E81AF90A0A0B1B0B75
S11303E042F164858091A0008F5F8F7090919F008F
S11303F0891741F0A091A000B0E0AF55BF4F6C93B6
S11304008093A00080859185A285B38588539F4FF2
S1130410AF4FBF4F80879187A287B387808591852F
S1130420A285B38579018A01E81AF90A0A0B1B0B24
S1130430C2F61F910F91FF90EF9008951F920F92B3
S11304400FB60F9211240F931F932F933F934F9343
S11304505F936F937F938F939F93AF93BF93EF9328
S1130460FF9380919B0090919C00A0919D00B0917E
S11304709E0040918D0050918E0060918F0070918C
S113048090008C019D01041B150B260B370B0233C6
S1130490110521053105C8F080938D0090938E00DD
S11304A0A0938F00B09390008091A0008F5F8F7015
S11304B090919F00891749F0E091A000F0E0EF557A
S11304C0FF4F91E090838093A000FF91EF91BF9143
S11304D0AF919F918F917F916F915F914F913F91D8
S11304E02F911F910F910F900FBE0F901F90189591
S11304F01F920F920FB60F9211240F931F932F93F5
S11305003F934F935F936F937F938F939F93AF9397
S1130510BF93EF93FF9380919B0090919C00A091D7
S11305209D00B0919E004091890050918A00609195
S11305308B0070918C008C019D01041B150B260B04
S1130540370B0233110521053105C8F0809389006A
S113055090938A00A0938B00B0938C008091A000AC
S11305608F5F8F7090919F00891749F0E091A000F0
S1130570F0E0EF55FF4F92E090838093A000FF914D
S1130580EF91BF91AF919F918F917F916F915F9107
S11305904F913F912F911F910F910F900FBE0F908C
S11305A01F9018951F920F920FB60F9211242F933C
S11305B03F934F935F936F937F938F939F93AF93E7
S11305C0BF93CF93EF93FF9380919B0090919C00F6
S11305D0A0919D00B0919E000196A11DB11D809334
S11305E09B0090939C00A0939D00B0939E0060910B
S11305F09B0070919C0080919D0090919E002AEF39
S113060030E040E050E00E945A04DA01C90161E0A0
S11306108627282F217020937A008091870090915B
S113062088000196883E23E0920728F4909388007E
S11306308093870025C010928800109287008091D3
S113064094008F5F80939400809194008C33C0F069
S113065010929400809195008F5F80939500809113
S113066095008C3368F010929500809196008F5F0E
S11306708093960080919600883110F01092960035
S1130680C0B320919B0030919C0040919D005091FB
S11306909E006C2F8DE690E00E94580120919B00F3
S11306A030919C0040919D0050919E006C2F80E6FB
S11306B090E00E9458018BB3807F8BBBE091860051
S11306C0F0E0E956FF4F808185BB80918600813040
S11306D031F068F0823029F0833029F006C094E0CC
S11306E007C092E005C091E003C090E001C098E02B
S11306F08BB3807F892B8BBB809186008F5F843086
S113070018F48093860002C010928600FF91EF9146
S1130710CF91BF91AF919F918F917F916F915F9195
S11307204F913F912F910F900FBE0F901F901895EE
S113073084B7806884BF84B7806884BF8FEF84BB2C
S113074015BA8AB38F608ABB8BB3807F8BBB81B3AE
S1130750807F81BB82B38F6082BB85B7826085BF97
S113076085B78E7F85BF85B7886085BF85B78B7F4A
S113077085BF8AB7806C8ABF8BB7806C8BBF13BE72
S113078012BE8CE78CBF83B7886083BF83B7836056
S113079083BF89B7826089BF0E9449007894F12C95
S11307A0C1E007E910E0D6E00F2EFFEC9F2EF02DFC
S11307B00F2EFFE4AF2EF02D0F2EF7E8BF2EF02DF5
S11307C00F2EF7E17F2EF02D0F2EF6EECF2EF02D0B
S11307D00F2EFFE7DF2EF02DEE24EA944DC082E0C9
S11307E08816B1F0881520F0E1E08E1641F044C07F
S11307F0F3E08F16B1F084E0881699F13DC08FB70D
S1130800F894F801D083C182D282E3828FBF34C0CE
S11308108FB7F894F801D0839182A282B3828FBFFC
S11308202BC04091960050E04F5F5F4F9A01ABEAB6
S1130830BAEA0E947C04929582958F7089279F70F2
S113084089279C01220F331F820F931F880F991F42
S1130850880F991F880F991F481B590B40939600C6
S11308600BC080919600882321F0809196008150DE
S113087001C0872D809396002FB7F89490919F0024
S11308808091A000981779F0E0919F00F0E0EF5577
S1130890FF4F908180919F008F5F8F7080939F00A6
S11308A0892E8C2F01C08F2D2FBF811198CF0E94CC
S11308B04900E2CFA1E21A2EAA1BBB1BFD010DC009
S11308C0AA1FBB1FEE1FFF1FA217B307E407F507FC
S11308D020F0A21BB30BE40BF50B661F771F881FD8
S11308E0991F1A9469F760957095809590959B016E
S11308F0AC01BD01CF010895A29FB001B39FC00117
S1130900A39F700D811D1124911DB29F700D811D37
S10D09101124911D0895F894FFCFFF
S113091A02000000000000000000000004010000C2
S113092A00000000000000000003013F065B4F6660
S109093A6D7D077F6F00D4
S9030000FC
