:100000000C942A000C9450020C9477020C94470034
:100010000C9447000C9447000C9447000C94290260
:100020000C9447000C9447000C9491010C944700E9
:100030000C9447000C9447000C9447000C94470024
:100040000C9447000C9447000C9447000C94470014
:100050000C94470011241FBECFE5D8E0DEBFCDBF12
:1000600010E0A0E6B0E0E8E8F8E002C005900D92EC
:10007000A037B107D9F720E0A0E7B0E001C01D929A
:10008000AE3AB207E1F70E949E020C9442040C942F
:100090000000FC012FB7F89490A19F5F9F7181A190
:1000A000981741F080A1DF01A80FB11D6C9390A3B8
:1000B00081E001C080E02FBF08956FB7F894E6E8B3
:1000C000F0E050813181428180918B00813009F0D4
:1000D000C0C0809164008111C0C0809189008130CE
:1000E00029F008F4BEC0823029F008C020E081E089
:1000F00090E007C021E080E090E003C090E020E0C5
:1001000080E06FBFE0E6F0E01082118261E0628380
:10011000138260918A0061114EC09923A9F0E0E832
:10012000F0E08AE0838382838DEC389F812D112457
:100130008695869586958183880F982F990F990FBC
:10014000890F381B308308958823A9F08DEC589FC0
:10015000812D1124869586958695E0E8F0E08383CD
:10016000880F982F990F990F890F581B52838AE097
:100170008183808308958DEC589F912D112496954D
:1001800096959695E0E8F0E09383990F292F220F3A
:10019000220F920F591B5283389F812D112486956F
:1001A000869586958183880F982F990F990F890FCF
:1001B000381B308308958823A9F0E0E8F0E08AE056
:1001C000838382838DEC489F812D112486958695AB
:1001D00086958183880F982F990F990F890F481B57
:1001E000408308952223A9F08DEC389F812D11249E
:1001F000869586958695E0E8F0E08383880F982FB2
:10020000990F990F890F381B32838AE0818380838D
:1002100008958DEC389F912D11249695969596957D
:10022000E0E8F0E09383990F292F220F220F920F1D
:10023000391B3283489F812D11248695869586959A
:100240008183880F982F990F990F890F481B40833E
:10025000089520E080E090E054CF20E080E090E03E
:1002600050CF20E080E091E04CCF1F93CF93DF93FD
:10027000EC01142F8981861307C08A81833030F402
:100280008A818F5F8A8302C01A8269838A81833060
:10029000A0F08881681789F06883662351F01C827A
:1002A0001B821E821D82612F8CE890E00E94490013
:1002B00004C01C821B821E821D828881882369F1F2
:1002C0008B819C810A969C838B838B819C81803D52
:1002D000974018F18D819E810A969E838D838B8134
:1002E0009C81803A9F4068F48D819E81883C910575
:1002F000A0F01E821D82612F8CE890E00E944900D0
:100300000CC08D819E818436910538F01E821D823D
:10031000612F8CE890E00E944900DF91CF911F91FE
:1003200008951F920F920FB60F9211242F933F93AF
:100330004F935F936F937F938F939F93AF93BF93ED
:10034000CF93EF93FF93E0917F00F0E0E058FF4FF1
:1003500080819BB3907F9BBBE0917F00F0E0E05AEF
:10036000FF4F90818A3030F4E82FF0E0EB59FF4FD7
:10037000808101C080E09111806885BB30917F0051
:100380008BB3282F207F81E090E002C0880F991F57
:100390003A95E2F7822B8BBB80917F008F5F809331
:1003A0007F0080917F00843010F010927F00809158
:1003B0008B008130D9F48091840090918500019662
:1003C00090938500809384008091840090918500B3
:1003D0008A3F910590F010928500109284009091D0
:1003E000640081E089278093640007C081E08093E6
:1003F00064001092850010928400809170008F5FDD
:100400008A3018F48093700012C010927000C0B34C
:100410006C2F617044E088E790E00E943501C1FBD9
:10042000662760F945E081E790E00E943501FF9181
:10043000EF91CF91BF91AF919F918F917F916F91EC
:100440005F914F913F912F910F900FBE0F901F9092
:1004500018951F920F920FB60F9211242F933F936E
:100460004F935F936F937F938F939F93AF93BF93BC
:10047000EF93FF9361E08CE890E00E944900FF91C8
:10048000EF91BF91AF919F918F917F916F915F910C
:100490004F913F912F910F900FBE0F901F90189585
:1004A0001F920F920FB60F9211242F933F934F93E9
:1004B0005F936F937F938F939F93AF93BF93EF93CC
:1004C000FF9362E08CE890E00E944900FF91EF9179
:1004D000BF91AF919F918F917F916F915F914F915C
:1004E0003F912F910F900FBE0F901F9018951F9264
:1004F0000F920FB60F9211242F933F934F935F9358
:100500006F937F938F939F93AF93BF93EF93FF93DB
:1005100063E08CE890E00E944900FF91EF91BF9169
:10052000AF919F918F917F916F915F914F913F918B
:100530002F910F900FBE0F901F901895ECE8F0E0F0
:1005400010A211A28FEF84BB15BA8AB38F608ABB49
:100550008BB3807F8BBB81B3807F81BB82B3807F75
:1005600082BB8BE083BF8CE78CBF89B7826089BF79
:100570001FBC8CE08EBD81E19AE79BBD8ABD89B727
:10058000806189BF85B7826085BF85B78E7F85BF53
:1005900085B7886085BF85B78B7F85BF8BB7806C3B
:1005A0008BBF0E945D0078942FB7F8948EE090E0A6
:1005B000A0E09CE2ADE28093860090938700A09338
:1005C00088002FBFCCE8D0E0F12C01E00F2EFCE337
:1005D000EF2EF02D2FB7F89489A198A1981761F00C
:1005E000E9A1F0E0E457FF4F908189A18F5F8F71FF
:1005F00089A3192F802F01C08F2D2FBF882309F4C5
:100600002FC1133009F450C028F4113051F01230CA
:10061000B9F126C1143009F465C0153009F4DBC006
:100620001FC180918B0081111BC12FB7F89480915D
:10063000860090918700A0918800482F392F2FBF06
:1006400021E02A0F2C3378F031E0390F3C3338F0B9
:100650004F5F483130F02F2D3F2D40E004C02F2D4B
:1006600002C02F2D3F2D5FB7F894842F932FA22F18
:100670008093860090938700A09388005FBFF0C0AE
:1006800080918B0081110BC000938B00F092890048
:10069000009364001092850010928400E1C0F092F3
:1006A0008B0000936400DCC080918B00811108C036
:1006B00090918A00802F91118F2D80938A00D0C055
:1006C00080918900823021F0809189008F5F01C084
:1006D0008F2D809389000093640010928500109202
:1006E0008400BEC080918B00813009F0B9C08FB703
:1006F000F894609086007090870080908800D62CD7
:10070000C72C482D8FBF809189008130E9F018F007
:10071000823079F142C0E62DF0E031969F01ABEADC
:10072000BAEA0E943304929582958F7089279F7050
:1007300089279C01220F331F820F931FDE2E28E092
:10074000829FD018112429C0E72DF0E031969F0137
:10075000A9E8B8E80E94330496958795929582950A
:100760008F7089279F708927CE2EE89EC01811248C
:1007700014C0482D50E04F5F5F4F9A01A9E8B8E8D8
:100780000E94330496958795929582958F7089275C
:100790009F708927E89E401911244C3308F04F2D93
:1007A0008BE38C1508F4CF2C27E12D1508F4DF2CF2
:1007B0008FB7F8946D2C7C2C842E609286007092FA
:1007C0008700809288008FBF00936400109285009C
:1007D0001092840045C080918B00813009F040C0A8
:1007E0005FB7F8948091860090918700A09188006F
:1007F000482F392F2A2F5FBF50918900513051F077
:1008000018F0523069F00FC0882311F041500BC02E
:1008100047E109C0992311F0315005C03BE303C003
:10082000AA2329F021502C3318F020E001C02BE33B
:100830003C3308F030E0483108F040E05FB7F8940E
:10084000842F932FA22F8093860090938700A093EC
:1008500088005FBF009364001092850010928400AE
:100860000E945D00B7CEA29FB001B39FC001A39FBD
:10087000700D811D1124911DB29F700D811D1124D9
:08088000911D0895F894FFCFCB
:1008880000000100013F065B4F666D7D077F6F002A
:00000001FF
